:10000000B700000067808000735040307350403468
:1000100081400141814101428142014381430144C8
:100020008144814601478147970100209381817D6A
:10003000F32340F1B70200009382020063F47200E0
:100040006F00E028170100201301C17BB7020000F8
:1000500093820240638603001E837D13E31F03FE29
:1000600033015140330401006F004000411106C6C6
:1000700022C426C2F32640F132C0AE842A843685DB
:1000800097000000E780801E29C197000000E780EC
:10009000C01D3705002013050500B7050020938516
:1000A000050097000000E7802011370500201305A8
:1000B0000500B705002093850500370600001306EC
:1000C000C65197000000E780801397000000E7808A
:1000D000A01A2285A685024697000000E7808007C7
:1000E000397106C016C21AC41EC62AC82ECA32CC1E
:1000F00036CE3AD03ED233050100EF0000028240F6
:1001000092422243B2434245D2456246F2460257EA
:1001100092571301410273002030F325203463C647
:1001200005001703000067000314139515000581EF
:10013000B145637BB5000A05B70500009385854688
:100140002E951C4191C38287170300006700C311DD
:10015000B7150240904D371501401366060290CD49
:1001600083250540370600FD7D16F18D3706000119
:10017000D18D2320B54083250540370600F47D1638
:10018000F18D2320B540B7450F0093850524032644
:10019000C540136606042326C5402E867D167DFEC7
:1001A0000326C5401376F6FB2326C5402E867D1612
:1001B0007DFEF1BF637EB5001376350019EA7156F6
:1001C00009C9232005006370C5021105E36AB5FE65
:1001D0008280370500001305052D9305F006970072
:1001E0000000E780600C370500001305A54093056B
:1001F000D00597000000E780200B6375B502937669
:10020000360085EE93763500715705CAA9E221C103
:100210001C421CC16379E5006377E60011051106F5
:10022000E365B5FE8280370500001305A540930500
:10023000D00597000000E780200737050000130570
:10024000F5339305500697000000E780E005370579
:1002500000001305453A9305600697000000E7800B
:10026000A00401A001A0828001C573005010F5BF59
:1002700005458280370500001305050E73105530C3
:10028000828001A097000000E780800051112AC001
:1002900032C223040100A304B1000A8597000000C4
:1002A000E78060FE01112ACC2ECE28082AC0054521
:1002B0002AC202C811452AC402C637060000130626
:1002C000C6500A85814597000000E780E0FB01A049
:1002D000756E7361666520707265636F6E646974B4
:1002E000696F6E2873292076696F6C617465643A52
:1002F000207074723A3A77726974655F766F6C61D8
:1003000074696C65207265717569726573207468B3
:1003100061742074686520706F696E746572206105
:100320007267756D656E7420697320616C69676EA4
:10033000656420616E64206E6F6E2D6E756C6C75D9
:100340006E7361666520707265636F6E646974694F
:100350006F6E2873292076696F6C617465643A202A
:100360007074723A3A72656164207265717569726F
:10037000657320746861742074686520706F696E9D
:1003800074657220617267756D656E742069732083
:10039000616C69676E656420616E64206E6F6E2D9E
:1003A0006E756C6C756E7361666520707265636FD7
:1003B0006E646974696F6E2873292076696F6C6149
:1003C0007465643A207074723A3A77726974652081
:1003D00072657175697265732074686174207468E0
:1003E0006520706F696E74657220617267756D65E6
:1003F0006E7420697320616C69676E656420616E3C
:1004000064206E6F6E2D6E756C6C756E73616665B3
:1004100020707265636F6E646974696F6E287329EA
:100420002076696F6C617465643A207074723A3A30
:100430006F66667365742072657175697265732085
:1004400074686520616464726573732063616C63B2
:10045000756C6174696F6E20746F206E6F74206F9D
:10046000766572666C6F77006402000064020000BB
:10047000000000006402000064020000640200004A
:10048000000000006402000064020000640200003A
:100490000000000064020000433A5C55736572730B
:1004A0005C75747435355C2E7275737475705C741C
:1004B0006F6F6C636861696E735C6E696768746C9A
:1004C000792D7838365F36342D70632D77696E64F8
:1004D0006F77732D6D7376635C6C69625C72757394
:1004E000746C69625C7372635C727573745C6C6962
:1004F00062726172795C636F72655C7372635C7067
:10050000616E69636B696E672E72730098040000F8
:0C05100073000000DD000000050000008A
:00000001FF
